{
	"data": {
		"bytecode": {
			"linkReferences": {},
			"object": "60a060405266038d7ea4c6800060015534801561001a575f80fd5b503373ffffffffffffffffffffffffffffffffffffffff1660808173ffffffffffffffffffffffffffffffffffffffff16815250506080516116556100985f395f818161023f0152818161041c015281816104d60152818161064f0152818161070e015281816109b6015281816109da0152610d6801526116555ff3fe608060405260043610610093575f3560e01c80638da5cb5b116100585780638da5cb5b1461018d578063a29f481c146101b7578063a4821719146101df578063c605af53146101e9578063e985e36714610213576100ca565b8062ae3bf8146100ce578063280da6fa146100f6578063518ab2a81461010c578063676c0d77146101365780637cc1f8671461015e576100ca565b366100ca576040517fb67b8d2900000000000000000000000000000000000000000000000000000000815260040160405180910390fd5b5f80fd5b3480156100d9575f80fd5b506100f460048036038101906100ef9190610f0f565b61023d565b005b348015610101575f80fd5b5061010a6104d4565b005b348015610117575f80fd5b50610120610706565b60405161012d9190610f52565b60405180910390f35b348015610141575f80fd5b5061015c60048036038101906101579190610f95565b61070c565b005b348015610169575f80fd5b50610172610813565b60405161018496959493929190611074565b60405180910390f35b348015610198575f80fd5b506101a16109b4565b6040516101ae91906110da565b60405180910390f35b3480156101c2575f80fd5b506101dd60048036038101906101d89190610f0f565b6109d8565b005b6101e7610b47565b005b3480156101f4575f80fd5b506101fd610e7b565b60405161020a9190610f52565b60405180910390f35b34801561021e575f80fd5b50610227610e81565b60405161023491906110da565b60405180910390f35b7f000000000000000000000000000000000000000000000000000000000000000073ffffffffffffffffffffffffffffffffffffffff163373ffffffffffffffffffffffffffffffffffffffff16146102c2576040517f5fc483c500000000000000000000000000000000000000000000000000000000815260040160405180910390fd5b5f8054906101000a900473ffffffffffffffffffffffffffffffffffffffff1673ffffffffffffffffffffffffffffffffffffffff168173ffffffffffffffffffffffffffffffffffffffff1603610346576040517fad2b859d00000000000000000000000000000000000000000000000000000000815260040160405180910390fd5b5f8190505f8173ffffffffffffffffffffffffffffffffffffffff166370a08231306040518263ffffffff1660e01b815260040161038491906110da565b602060405180830381865afa15801561039f573d5f803e3d5ffd5b505050506040513d601f19601f820116820180604052508101906103c39190611107565b90505f81036103fe576040517f62f3ba9700000000000000000000000000000000000000000000000000000000815260040160405180910390fd5b8173ffffffffffffffffffffffffffffffffffffffff1663a9059cbb7f0000000000000000000000000000000000000000000000000000000000000000836040518363ffffffff1660e01b8152600401610459929190611132565b6020604051808303815f875af1158015610475573d5f803e3d5ffd5b505050506040513d601f19601f82011682018060405250810190610499919061118e565b6104cf576040517f045c4b0200000000000000000000000000000000000000000000000000000000815260040160405180910390fd5b505050565b7f000000000000000000000000000000000000000000000000000000000000000073ffffffffffffffffffffffffffffffffffffffff163373ffffffffffffffffffffffffffffffffffffffff1614610559576040517f5fc483c500000000000000000000000000000000000000000000000000000000815260040160405180910390fd5b5f805f9054906101000a900473ffffffffffffffffffffffffffffffffffffffff1690505f8173ffffffffffffffffffffffffffffffffffffffff166370a08231306040518263ffffffff1660e01b81526004016105b791906110da565b602060405180830381865afa1580156105d2573d5f803e3d5ffd5b505050506040513d601f19601f820116820180604052508101906105f69190611107565b90505f8103610631576040517ffba5154e00000000000000000000000000000000000000000000000000000000815260040160405180910390fd5b8173ffffffffffffffffffffffffffffffffffffffff1663a9059cbb7f0000000000000000000000000000000000000000000000000000000000000000836040518363ffffffff1660e01b815260040161068c929190611132565b6020604051808303815f875af11580156106a8573d5f803e3d5ffd5b505050506040513d601f19601f820116820180604052508101906106cc919061118e565b610702576040517f045c4b0200000000000000000000000000000000000000000000000000000000815260040160405180910390fd5b5050565b60025481565b7f000000000000000000000000000000000000000000000000000000000000000073ffffffffffffffffffffffffffffffffffffffff163373ffffffffffffffffffffffffffffffffffffffff1614610791576040517f5fc483c500000000000000000000000000000000000000000000000000000000815260040160405180910390fd5b5f81036107c9576040517ebfc92100000000000000000000000000000000000000000000000000000000815260040160405180910390fd5b5f6001549050816001819055507f945c1c4e99aa89f648fbfe3df471b916f719e16d960fcec0737d4d56bd69683881836040516108079291906111b9565b60405180910390a15050565b5f60605f805f805f805f9054906101000a900473ffffffffffffffffffffffffffffffffffffffff1690505f819050818173ffffffffffffffffffffffffffffffffffffffff166395d89b416040518163ffffffff1660e01b81526004015f60405180830381865afa15801561088b573d5f803e3d5ffd5b505050506040513d5f823e3d601f19601f820116820180604052508101906108b391906112fe565b8273ffffffffffffffffffffffffffffffffffffffff1663313ce5676040518163ffffffff1660e01b8152600401602060405180830381865afa1580156108fc573d5f803e3d5ffd5b505050506040513d601f19601f82011682018060405250810190610920919061136f565b8373ffffffffffffffffffffffffffffffffffffffff166370a08231306040518263ffffffff1660e01b815260040161095991906110da565b602060405180830381865afa158015610974573d5f803e3d5ffd5b505050506040513d601f19601f820116820180604052508101906109989190611107565b6001546002549750975097509750975097505050909192939495565b7f000000000000000000000000000000000000000000000000000000000000000081565b7f000000000000000000000000000000000000000000000000000000000000000073ffffffffffffffffffffffffffffffffffffffff163373ffffffffffffffffffffffffffffffffffffffff1614610a5d576040517f5fc483c500000000000000000000000000000000000000000000000000000000815260040160405180910390fd5b5f73ffffffffffffffffffffffffffffffffffffffff168173ffffffffffffffffffffffffffffffffffffffff1603610ac2576040517fe6c4247b00000000000000000000000000000000000000000000000000000000815260040160405180910390fd5b805f806101000a81548173ffffffffffffffffffffffffffffffffffffffff021916908373ffffffffffffffffffffffffffffffffffffffff1602179055508073ffffffffffffffffffffffffffffffffffffffff167f3f8bb5f6e8ecfb5425a48c996d20089aff3396b3c168c13403c3fa3996f70a0260405160405180910390a250565b5f3403610b80576040517f717e6b7b00000000000000000000000000000000000000000000000000000000815260040160405180910390fd5b5f805f9054906101000a900473ffffffffffffffffffffffffffffffffffffffff1690505f73ffffffffffffffffffffffffffffffffffffffff168173ffffffffffffffffffffffffffffffffffffffff1603610c09576040517fa327f80500000000000000000000000000000000000000000000000000000000815260040160405180910390fd5b5f8190505f8173ffffffffffffffffffffffffffffffffffffffff1663313ce5676040518163ffffffff1660e01b8152600401602060405180830381865afa158015610c57573d5f803e3d5ffd5b505050506040513d601f19601f82011682018060405250810190610c7b919061136f565b90505f60015482600a610c8e91906114f6565b34610c999190611540565b610ca391906115ae565b90508060025f82825401925050819055508273ffffffffffffffffffffffffffffffffffffffff1663a9059cbb33836040518363ffffffff1660e01b8152600401610cef929190611132565b6020604051808303815f875af1158015610d0b573d5f803e3d5ffd5b505050506040513d601f19601f82011682018060405250810190610d2f919061118e565b610d65576040517f045c4b0200000000000000000000000000000000000000000000000000000000815260040160405180910390fd5b5f7f000000000000000000000000000000000000000000000000000000000000000073ffffffffffffffffffffffffffffffffffffffff1634604051610daa9061160b565b5f6040518083038185875af1925050503d805f8114610de4576040519150601f19603f3d011682016040523d82523d5f602084013e610de9565b606091505b5050905080610e24576040517f6d963f8800000000000000000000000000000000000000000000000000000000815260040160405180910390fd5b3373ffffffffffffffffffffffffffffffffffffffff167f8fafebcaf9d154343dad25669bfa277f4fbacd7ac6b0c4fed522580e040a0f333484604051610e6c9291906111b9565b60405180910390a25050505050565b60015481565b5f8054906101000a900473ffffffffffffffffffffffffffffffffffffffff1681565b5f604051905090565b5f80fd5b5f80fd5b5f73ffffffffffffffffffffffffffffffffffffffff82169050919050565b5f610ede82610eb5565b9050919050565b610eee81610ed4565b8114610ef8575f80fd5b50565b5f81359050610f0981610ee5565b92915050565b5f60208284031215610f2457610f23610ead565b5b5f610f3184828501610efb565b91505092915050565b5f819050919050565b610f4c81610f3a565b82525050565b5f602082019050610f655f830184610f43565b92915050565b610f7481610f3a565b8114610f7e575f80fd5b50565b5f81359050610f8f81610f6b565b92915050565b5f60208284031215610faa57610fa9610ead565b5b5f610fb784828501610f81565b91505092915050565b610fc981610ed4565b82525050565b5f81519050919050565b5f82825260208201905092915050565b5f5b83811015611006578082015181840152602081019050610feb565b5f8484015250505050565b5f601f19601f8301169050919050565b5f61102b82610fcf565b6110358185610fd9565b9350611045818560208601610fe9565b61104e81611011565b840191505092915050565b5f60ff82169050919050565b61106e81611059565b82525050565b5f60c0820190506110875f830189610fc0565b81810360208301526110998188611021565b90506110a86040830187611065565b6110b56060830186610f43565b6110c26080830185610f43565b6110cf60a0830184610f43565b979650505050505050565b5f6020820190506110ed5f830184610fc0565b92915050565b5f8151905061110181610f6b565b92915050565b5f6020828403121561111c5761111b610ead565b5b5f611129848285016110f3565b91505092915050565b5f6040820190506111455f830185610fc0565b6111526020830184610f43565b9392505050565b5f8115159050919050565b61116d81611159565b8114611177575f80fd5b50565b5f8151905061118881611164565b92915050565b5f602082840312156111a3576111a2610ead565b5b5f6111b08482850161117a565b91505092915050565b5f6040820190506111cc5f830185610f43565b6111d96020830184610f43565b9392505050565b5f80fd5b5f80fd5b7f4e487b71000000000000000000000000000000000000000000000000000000005f52604160045260245ffd5b61121e82611011565b810181811067ffffffffffffffff8211171561123d5761123c6111e8565b5b80604052505050565b5f61124f610ea4565b905061125b8282611215565b919050565b5f67ffffffffffffffff82111561127a576112796111e8565b5b61128382611011565b9050602081019050919050565b5f6112a261129d84611260565b611246565b9050828152602081018484840111156112be576112bd6111e4565b5b6112c9848285610fe9565b509392505050565b5f82601f8301126112e5576112e46111e0565b5b81516112f5848260208601611290565b91505092915050565b5f6020828403121561131357611312610ead565b5b5f82015167ffffffffffffffff8111156113305761132f610eb1565b5b61133c848285016112d1565b91505092915050565b61134e81611059565b8114611358575f80fd5b50565b5f8151905061136981611345565b92915050565b5f6020828403121561138457611383610ead565b5b5f6113918482850161135b565b91505092915050565b7f4e487b71000000000000000000000000000000000000000000000000000000005f52601160045260245ffd5b5f8160011c9050919050565b5f808291508390505b600185111561141c578086048111156113f8576113f761139a565b5b60018516156114075780820291505b8081029050611415856113c7565b94506113dc565b94509492505050565b5f8261143457600190506114ef565b81611441575f90506114ef565b8160018114611457576002811461146157611490565b60019150506114ef565b60ff8411156114735761147261139a565b5b8360020a91508482111561148a5761148961139a565b5b506114ef565b5060208310610133831016604e8410600b84101617156114c55782820a9050838111156114c0576114bf61139a565b5b6114ef565b6114d284848460016113d3565b925090508184048111156114e9576114e861139a565b5b81810290505b9392505050565b5f61150082610f3a565b915061150b83611059565b92506115387fffffffffffffffffffffffffffffffffffffffffffffffffffffffffffffffff8484611425565b905092915050565b5f61154a82610f3a565b915061155583610f3a565b925082820261156381610f3a565b9150828204841483151761157a5761157961139a565b5b5092915050565b7f4e487b71000000000000000000000000000000000000000000000000000000005f52601260045260245ffd5b5f6115b882610f3a565b91506115c383610f3a565b9250826115d3576115d2611581565b5b828204905092915050565b5f81905092915050565b50565b5f6115f65f836115de565b9150611601826115e8565b5f82019050919050565b5f611615826115eb565b915081905091905056fea2646970667358221220c48c7754ca4ec0b995bc0e9aa3844e65a3d36cb68eafb1a279ac44dfa3aa2a0e64736f6c63430008180033",
			"opcodes": "PUSH1 0xA0 PUSH1 0x40 MSTORE PUSH7 0x38D7EA4C68000 PUSH1 0x1 SSTORE CALLVALUE DUP1 ISZERO PUSH2 0x1A JUMPI PUSH0 DUP1 REVERT JUMPDEST POP CALLER PUSH20 0xFFFFFFFFFFFFFFFFFFFFFFFFFFFFFFFFFFFFFFFF AND PUSH1 0x80 DUP2 PUSH20 0xFFFFFFFFFFFFFFFFFFFFFFFFFFFFFFFFFFFFFFFF AND DUP2 MSTORE POP POP PUSH1 0x80 MLOAD PUSH2 0x1655 PUSH2 0x98 PUSH0 CODECOPY PUSH0 DUP2 DUP2 PUSH2 0x23F ADD MSTORE DUP2 DUP2 PUSH2 0x41C ADD MSTORE DUP2 DUP2 PUSH2 0x4D6 ADD MSTORE DUP2 DUP2 PUSH2 0x64F ADD MSTORE DUP2 DUP2 PUSH2 0x70E ADD MSTORE DUP2 DUP2 PUSH2 0x9B6 ADD MSTORE DUP2 DUP2 PUSH2 0x9DA ADD MSTORE PUSH2 0xD68 ADD MSTORE PUSH2 0x1655 PUSH0 RETURN INVALID PUSH1 0x80 PUSH1 0x40 MSTORE PUSH1 0x4 CALLDATASIZE LT PUSH2 0x93 JUMPI PUSH0 CALLDATALOAD PUSH1 0xE0 SHR DUP1 PUSH4 0x8DA5CB5B GT PUSH2 0x58 JUMPI DUP1 PUSH4 0x8DA5CB5B EQ PUSH2 0x18D JUMPI DUP1 PUSH4 0xA29F481C EQ PUSH2 0x1B7 JUMPI DUP1 PUSH4 0xA4821719 EQ PUSH2 0x1DF JUMPI DUP1 PUSH4 0xC605AF53 EQ PUSH2 0x1E9 JUMPI DUP1 PUSH4 0xE985E367 EQ PUSH2 0x213 JUMPI PUSH2 0xCA JUMP JUMPDEST DUP1 PUSH3 0xAE3BF8 EQ PUSH2 0xCE JUMPI DUP1 PUSH4 0x280DA6FA EQ PUSH2 0xF6 JUMPI DUP1 PUSH4 0x518AB2A8 EQ PUSH2 0x10C JUMPI DUP1 PUSH4 0x676C0D77 EQ PUSH2 0x136 JUMPI DUP1 PUSH4 0x7CC1F867 EQ PUSH2 0x15E JUMPI PUSH2 0xCA JUMP JUMPDEST CALLDATASIZE PUSH2 0xCA JUMPI PUSH1 0x40 MLOAD PUSH32 0xB67B8D2900000000000000000000000000000000000000000000000000000000 DUP2 MSTORE PUSH1 0x4 ADD PUSH1 0x40 MLOAD DUP1 SWAP2 SUB SWAP1 REVERT JUMPDEST PUSH0 DUP1 REVERT JUMPDEST CALLVALUE DUP1 ISZERO PUSH2 0xD9 JUMPI PUSH0 DUP1 REVERT JUMPDEST POP PUSH2 0xF4 PUSH1 0x4 DUP1 CALLDATASIZE SUB DUP2 ADD SWAP1 PUSH2 0xEF SWAP2 SWAP1 PUSH2 0xF0F JUMP JUMPDEST PUSH2 0x23D JUMP JUMPDEST STOP JUMPDEST CALLVALUE DUP1 ISZERO PUSH2 0x101 JUMPI PUSH0 DUP1 REVERT JUMPDEST POP PUSH2 0x10A PUSH2 0x4D4 JUMP JUMPDEST STOP JUMPDEST CALLVALUE DUP1 ISZERO PUSH2 0x117 JUMPI PUSH0 DUP1 REVERT JUMPDEST POP PUSH2 0x120 PUSH2 0x706 JUMP JUMPDEST PUSH1 0x40 MLOAD PUSH2 0x12D SWAP2 SWAP1 PUSH2 0xF52 JUMP JUMPDEST PUSH1 0x40 MLOAD DUP1 SWAP2 SUB SWAP1 RETURN JUMPDEST CALLVALUE DUP1 ISZERO PUSH2 0x141 JUMPI PUSH0 DUP1 REVERT JUMPDEST POP PUSH2 0x15C PUSH1 0x4 DUP1 CALLDATASIZE SUB DUP2 ADD SWAP1 PUSH2 0x157 SWAP2 SWAP1 PUSH2 0xF95 JUMP JUMPDEST PUSH2 0x70C JUMP JUMPDEST STOP JUMPDEST CALLVALUE DUP1 ISZERO PUSH2 0x169 JUMPI PUSH0 DUP1 REVERT JUMPDEST POP PUSH2 0x172 PUSH2 0x813 JUMP JUMPDEST PUSH1 0x40 MLOAD PUSH2 0x184 SWAP7 SWAP6 SWAP5 SWAP4 SWAP3 SWAP2 SWAP1 PUSH2 0x1074 JUMP JUMPDEST PUSH1 0x40 MLOAD DUP1 SWAP2 SUB SWAP1 RETURN JUMPDEST CALLVALUE DUP1 ISZERO PUSH2 0x198 JUMPI PUSH0 DUP1 REVERT JUMPDEST POP PUSH2 0x1A1 PUSH2 0x9B4 JUMP JUMPDEST PUSH1 0x40 MLOAD PUSH2 0x1AE SWAP2 SWAP1 PUSH2 0x10DA JUMP JUMPDEST PUSH1 0x40 MLOAD DUP1 SWAP2 SUB SWAP1 RETURN JUMPDEST CALLVALUE DUP1 ISZERO PUSH2 0x1C2 JUMPI PUSH0 DUP1 REVERT JUMPDEST POP PUSH2 0x1DD PUSH1 0x4 DUP1 CALLDATASIZE SUB DUP2 ADD SWAP1 PUSH2 0x1D8 SWAP2 SWAP1 PUSH2 0xF0F JUMP JUMPDEST PUSH2 0x9D8 JUMP JUMPDEST STOP JUMPDEST PUSH2 0x1E7 PUSH2 0xB47 JUMP JUMPDEST STOP JUMPDEST CALLVALUE DUP1 ISZERO PUSH2 0x1F4 JUMPI PUSH0 DUP1 REVERT JUMPDEST POP PUSH2 0x1FD PUSH2 0xE7B JUMP JUMPDEST PUSH1 0x40 MLOAD PUSH2 0x20A SWAP2 SWAP1 PUSH2 0xF52 JUMP JUMPDEST PUSH1 0x40 MLOAD DUP1 SWAP2 SUB SWAP1 RETURN JUMPDEST CALLVALUE DUP1 ISZERO PUSH2 0x21E JUMPI PUSH0 DUP1 REVERT JUMPDEST POP PUSH2 0x227 PUSH2 0xE81 JUMP JUMPDEST PUSH1 0x40 MLOAD PUSH2 0x234 SWAP2 SWAP1 PUSH2 0x10DA JUMP JUMPDEST PUSH1 0x40 MLOAD DUP1 SWAP2 SUB SWAP1 RETURN JUMPDEST PUSH32 0x0 PUSH20 0xFFFFFFFFFFFFFFFFFFFFFFFFFFFFFFFFFFFFFFFF AND CALLER PUSH20 0xFFFFFFFFFFFFFFFFFFFFFFFFFFFFFFFFFFFFFFFF AND EQ PUSH2 0x2C2 JUMPI PUSH1 0x40 MLOAD PUSH32 0x5FC483C500000000000000000000000000000000000000000000000000000000 DUP2 MSTORE PUSH1 0x4 ADD PUSH1 0x40 MLOAD DUP1 SWAP2 SUB SWAP1 REVERT JUMPDEST PUSH0 DUP1 SLOAD SWAP1 PUSH2 0x100 EXP SWAP1 DIV PUSH20 0xFFFFFFFFFFFFFFFFFFFFFFFFFFFFFFFFFFFFFFFF AND PUSH20 0xFFFFFFFFFFFFFFFFFFFFFFFFFFFFFFFFFFFFFFFF AND DUP2 PUSH20 0xFFFFFFFFFFFFFFFFFFFFFFFFFFFFFFFFFFFFFFFF AND SUB PUSH2 0x346 JUMPI PUSH1 0x40 MLOAD PUSH32 0xAD2B859D00000000000000000000000000000000000000000000000000000000 DUP2 MSTORE PUSH1 0x4 ADD PUSH1 0x40 MLOAD DUP1 SWAP2 SUB SWAP1 REVERT JUMPDEST PUSH0 DUP2 SWAP1 POP PUSH0 DUP2 PUSH20 0xFFFFFFFFFFFFFFFFFFFFFFFFFFFFFFFFFFFFFFFF AND PUSH4 0x70A08231 ADDRESS PUSH1 0x40 MLOAD DUP3 PUSH4 0xFFFFFFFF AND PUSH1 0xE0 SHL DUP2 MSTORE PUSH1 0x4 ADD PUSH2 0x384 SWAP2 SWAP1 PUSH2 0x10DA JUMP JUMPDEST PUSH1 0x20 PUSH1 0x40 MLOAD DUP1 DUP4 SUB DUP2 DUP7 GAS STATICCALL ISZERO DUP1 ISZERO PUSH2 0x39F JUMPI RETURNDATASIZE PUSH0 DUP1 RETURNDATACOPY RETURNDATASIZE PUSH0 REVERT JUMPDEST POP POP POP POP PUSH1 0x40 MLOAD RETURNDATASIZE PUSH1 0x1F NOT PUSH1 0x1F DUP3 ADD AND DUP3 ADD DUP1 PUSH1 0x40 MSTORE POP DUP2 ADD SWAP1 PUSH2 0x3C3 SWAP2 SWAP1 PUSH2 0x1107 JUMP JUMPDEST SWAP1 POP PUSH0 DUP2 SUB PUSH2 0x3FE JUMPI PUSH1 0x40 MLOAD PUSH32 0x62F3BA9700000000000000000000000000000000000000000000000000000000 DUP2 MSTORE PUSH1 0x4 ADD PUSH1 0x40 MLOAD DUP1 SWAP2 SUB SWAP1 REVERT JUMPDEST DUP2 PUSH20 0xFFFFFFFFFFFFFFFFFFFFFFFFFFFFFFFFFFFFFFFF AND PUSH4 0xA9059CBB PUSH32 0x0 DUP4 PUSH1 0x40 MLOAD DUP4 PUSH4 0xFFFFFFFF AND PUSH1 0xE0 SHL DUP2 MSTORE PUSH1 0x4 ADD PUSH2 0x459 SWAP3 SWAP2 SWAP1 PUSH2 0x1132 JUMP JUMPDEST PUSH1 0x20 PUSH1 0x40 MLOAD DUP1 DUP4 SUB DUP2 PUSH0 DUP8 GAS CALL ISZERO DUP1 ISZERO PUSH2 0x475 JUMPI RETURNDATASIZE PUSH0 DUP1 RETURNDATACOPY RETURNDATASIZE PUSH0 REVERT JUMPDEST POP POP POP POP PUSH1 0x40 MLOAD RETURNDATASIZE PUSH1 0x1F NOT PUSH1 0x1F DUP3 ADD AND DUP3 ADD DUP1 PUSH1 0x40 MSTORE POP DUP2 ADD SWAP1 PUSH2 0x499 SWAP2 SWAP1 PUSH2 0x118E JUMP JUMPDEST PUSH2 0x4CF JUMPI PUSH1 0x40 MLOAD PUSH32 0x45C4B0200000000000000000000000000000000000000000000000000000000 DUP2 MSTORE PUSH1 0x4 ADD PUSH1 0x40 MLOAD DUP1 SWAP2 SUB SWAP1 REVERT JUMPDEST POP POP POP JUMP JUMPDEST PUSH32 0x0 PUSH20 0xFFFFFFFFFFFFFFFFFFFFFFFFFFFFFFFFFFFFFFFF AND CALLER PUSH20 0xFFFFFFFFFFFFFFFFFFFFFFFFFFFFFFFFFFFFFFFF AND EQ PUSH2 0x559 JUMPI PUSH1 0x40 MLOAD PUSH32 0x5FC483C500000000000000000000000000000000000000000000000000000000 DUP2 MSTORE PUSH1 0x4 ADD PUSH1 0x40 MLOAD DUP1 SWAP2 SUB SWAP1 REVERT JUMPDEST PUSH0 DUP1 PUSH0 SWAP1 SLOAD SWAP1 PUSH2 0x100 EXP SWAP1 DIV PUSH20 0xFFFFFFFFFFFFFFFFFFFFFFFFFFFFFFFFFFFFFFFF AND SWAP1 POP PUSH0 DUP2 PUSH20 0xFFFFFFFFFFFFFFFFFFFFFFFFFFFFFFFFFFFFFFFF AND PUSH4 0x70A08231 ADDRESS PUSH1 0x40 MLOAD DUP3 PUSH4 0xFFFFFFFF AND PUSH1 0xE0 SHL DUP2 MSTORE PUSH1 0x4 ADD PUSH2 0x5B7 SWAP2 SWAP1 PUSH2 0x10DA JUMP JUMPDEST PUSH1 0x20 PUSH1 0x40 MLOAD DUP1 DUP4 SUB DUP2 DUP7 GAS STATICCALL ISZERO DUP1 ISZERO PUSH2 0x5D2 JUMPI RETURNDATASIZE PUSH0 DUP1 RETURNDATACOPY RETURNDATASIZE PUSH0 REVERT JUMPDEST POP POP POP POP PUSH1 0x40 MLOAD RETURNDATASIZE PUSH1 0x1F NOT PUSH1 0x1F DUP3 ADD AND DUP3 ADD DUP1 PUSH1 0x40 MSTORE POP DUP2 ADD SWAP1 PUSH2 0x5F6 SWAP2 SWAP1 PUSH2 0x1107 JUMP JUMPDEST SWAP1 POP PUSH0 DUP2 SUB PUSH2 0x631 JUMPI PUSH1 0x40 MLOAD PUSH32 0xFBA5154E00000000000000000000000000000000000000000000000000000000 DUP2 MSTORE PUSH1 0x4 ADD PUSH1 0x40 MLOAD DUP1 SWAP2 SUB SWAP1 REVERT JUMPDEST DUP2 PUSH20 0xFFFFFFFFFFFFFFFFFFFFFFFFFFFFFFFFFFFFFFFF AND PUSH4 0xA9059CBB PUSH32 0x0 DUP4 PUSH1 0x40 MLOAD DUP4 PUSH4 0xFFFFFFFF AND PUSH1 0xE0 SHL DUP2 MSTORE PUSH1 0x4 ADD PUSH2 0x68C SWAP3 SWAP2 SWAP1 PUSH2 0x1132 JUMP JUMPDEST PUSH1 0x20 PUSH1 0x40 MLOAD DUP1 DUP4 SUB DUP2 PUSH0 DUP8 GAS CALL ISZERO DUP1 ISZERO PUSH2 0x6A8 JUMPI RETURNDATASIZE PUSH0 DUP1 RETURNDATACOPY RETURNDATASIZE PUSH0 REVERT JUMPDEST POP POP POP POP PUSH1 0x40 MLOAD RETURNDATASIZE PUSH1 0x1F NOT PUSH1 0x1F DUP3 ADD AND DUP3 ADD DUP1 PUSH1 0x40 MSTORE POP DUP2 ADD SWAP1 PUSH2 0x6CC SWAP2 SWAP1 PUSH2 0x118E JUMP JUMPDEST PUSH2 0x702 JUMPI PUSH1 0x40 MLOAD PUSH32 0x45C4B0200000000000000000000000000000000000000000000000000000000 DUP2 MSTORE PUSH1 0x4 ADD PUSH1 0x40 MLOAD DUP1 SWAP2 SUB SWAP1 REVERT JUMPDEST POP POP JUMP JUMPDEST PUSH1 0x2 SLOAD DUP2 JUMP JUMPDEST PUSH32 0x0 PUSH20 0xFFFFFFFFFFFFFFFFFFFFFFFFFFFFFFFFFFFFFFFF AND CALLER PUSH20 0xFFFFFFFFFFFFFFFFFFFFFFFFFFFFFFFFFFFFFFFF AND EQ PUSH2 0x791 JUMPI PUSH1 0x40 MLOAD PUSH32 0x5FC483C500000000000000000000000000000000000000000000000000000000 DUP2 MSTORE PUSH1 0x4 ADD PUSH1 0x40 MLOAD DUP1 SWAP2 SUB SWAP1 REVERT JUMPDEST PUSH0 DUP2 SUB PUSH2 0x7C9 JUMPI PUSH1 0x40 MLOAD PUSH31 0xBFC92100000000000000000000000000000000000000000000000000000000 DUP2 MSTORE PUSH1 0x4 ADD PUSH1 0x40 MLOAD DUP1 SWAP2 SUB SWAP1 REVERT JUMPDEST PUSH0 PUSH1 0x1 SLOAD SWAP1 POP DUP2 PUSH1 0x1 DUP2 SWAP1 SSTORE POP PUSH32 0x945C1C4E99AA89F648FBFE3DF471B916F719E16D960FCEC0737D4D56BD696838 DUP2 DUP4 PUSH1 0x40 MLOAD PUSH2 0x807 SWAP3 SWAP2 SWAP1 PUSH2 0x11B9 JUMP JUMPDEST PUSH1 0x40 MLOAD DUP1 SWAP2 SUB SWAP1 LOG1 POP POP JUMP JUMPDEST PUSH0 PUSH1 0x60 PUSH0 DUP1 PUSH0 DUP1 PUSH0 DUP1 PUSH0 SWAP1 SLOAD SWAP1 PUSH2 0x100 EXP SWAP1 DIV PUSH20 0xFFFFFFFFFFFFFFFFFFFFFFFFFFFFFFFFFFFFFFFF AND SWAP1 POP PUSH0 DUP2 SWAP1 POP DUP2 DUP2 PUSH20 0xFFFFFFFFFFFFFFFFFFFFFFFFFFFFFFFFFFFFFFFF AND PUSH4 0x95D89B41 PUSH1 0x40 MLOAD DUP2 PUSH4 0xFFFFFFFF AND PUSH1 0xE0 SHL DUP2 MSTORE PUSH1 0x4 ADD PUSH0 PUSH1 0x40 MLOAD DUP1 DUP4 SUB DUP2 DUP7 GAS STATICCALL ISZERO DUP1 ISZERO PUSH2 0x88B JUMPI RETURNDATASIZE PUSH0 DUP1 RETURNDATACOPY RETURNDATASIZE PUSH0 REVERT JUMPDEST POP POP POP POP PUSH1 0x40 MLOAD RETURNDATASIZE PUSH0 DUP3 RETURNDATACOPY RETURNDATASIZE PUSH1 0x1F NOT PUSH1 0x1F DUP3 ADD AND DUP3 ADD DUP1 PUSH1 0x40 MSTORE POP DUP2 ADD SWAP1 PUSH2 0x8B3 SWAP2 SWAP1 PUSH2 0x12FE JUMP JUMPDEST DUP3 PUSH20 0xFFFFFFFFFFFFFFFFFFFFFFFFFFFFFFFFFFFFFFFF AND PUSH4 0x313CE567 PUSH1 0x40 MLOAD DUP2 PUSH4 0xFFFFFFFF AND PUSH1 0xE0 SHL DUP2 MSTORE PUSH1 0x4 ADD PUSH1 0x20 PUSH1 0x40 MLOAD DUP1 DUP4 SUB DUP2 DUP7 GAS STATICCALL ISZERO DUP1 ISZERO PUSH2 0x8FC JUMPI RETURNDATASIZE PUSH0 DUP1 RETURNDATACOPY RETURNDATASIZE PUSH0 REVERT JUMPDEST POP POP POP POP PUSH1 0x40 MLOAD RETURNDATASIZE PUSH1 0x1F NOT PUSH1 0x1F DUP3 ADD AND DUP3 ADD DUP1 PUSH1 0x40 MSTORE POP DUP2 ADD SWAP1 PUSH2 0x920 SWAP2 SWAP1 PUSH2 0x136F JUMP JUMPDEST DUP4 PUSH20 0xFFFFFFFFFFFFFFFFFFFFFFFFFFFFFFFFFFFFFFFF AND PUSH4 0x70A08231 ADDRESS PUSH1 0x40 MLOAD DUP3 PUSH4 0xFFFFFFFF AND PUSH1 0xE0 SHL DUP2 MSTORE PUSH1 0x4 ADD PUSH2 0x959 SWAP2 SWAP1 PUSH2 0x10DA JUMP JUMPDEST PUSH1 0x20 PUSH1 0x40 MLOAD DUP1 DUP4 SUB DUP2 DUP7 GAS STATICCALL ISZERO DUP1 ISZERO PUSH2 0x974 JUMPI RETURNDATASIZE PUSH0 DUP1 RETURNDATACOPY RETURNDATASIZE PUSH0 REVERT JUMPDEST POP POP POP POP PUSH1 0x40 MLOAD RETURNDATASIZE PUSH1 0x1F NOT PUSH1 0x1F DUP3 ADD AND DUP3 ADD DUP1 PUSH1 0x40 MSTORE POP DUP2 ADD SWAP1 PUSH2 0x998 SWAP2 SWAP1 PUSH2 0x1107 JUMP JUMPDEST PUSH1 0x1 SLOAD PUSH1 0x2 SLOAD SWAP8 POP SWAP8 POP SWAP8 POP SWAP8 POP SWAP8 POP SWAP8 POP POP POP SWAP1 SWAP2 SWAP3 SWAP4 SWAP5 SWAP6 JUMP JUMPDEST PUSH32 0x0 DUP2 JUMP JUMPDEST PUSH32 0x0 PUSH20 0xFFFFFFFFFFFFFFFFFFFFFFFFFFFFFFFFFFFFFFFF AND CALLER PUSH20 0xFFFFFFFFFFFFFFFFFFFFFFFFFFFFFFFFFFFFFFFF AND EQ PUSH2 0xA5D JUMPI PUSH1 0x40 MLOAD PUSH32 0x5FC483C500000000000000000000000000000000000000000000000000000000 DUP2 MSTORE PUSH1 0x4 ADD PUSH1 0x40 MLOAD DUP1 SWAP2 SUB SWAP1 REVERT JUMPDEST PUSH0 PUSH20 0xFFFFFFFFFFFFFFFFFFFFFFFFFFFFFFFFFFFFFFFF AND DUP2 PUSH20 0xFFFFFFFFFFFFFFFFFFFFFFFFFFFFFFFFFFFFFFFF AND SUB PUSH2 0xAC2 JUMPI PUSH1 0x40 MLOAD PUSH32 0xE6C4247B00000000000000000000000000000000000000000000000000000000 DUP2 MSTORE PUSH1 0x4 ADD PUSH1 0x40 MLOAD DUP1 SWAP2 SUB SWAP1 REVERT JUMPDEST DUP1 PUSH0 DUP1 PUSH2 0x100 EXP DUP2 SLOAD DUP2 PUSH20 0xFFFFFFFFFFFFFFFFFFFFFFFFFFFFFFFFFFFFFFFF MUL NOT AND SWAP1 DUP4 PUSH20 0xFFFFFFFFFFFFFFFFFFFFFFFFFFFFFFFFFFFFFFFF AND MUL OR SWAP1 SSTORE POP DUP1 PUSH20 0xFFFFFFFFFFFFFFFFFFFFFFFFFFFFFFFFFFFFFFFF AND PUSH32 0x3F8BB5F6E8ECFB5425A48C996D20089AFF3396B3C168C13403C3FA3996F70A02 PUSH1 0x40 MLOAD PUSH1 0x40 MLOAD DUP1 SWAP2 SUB SWAP1 LOG2 POP JUMP JUMPDEST PUSH0 CALLVALUE SUB PUSH2 0xB80 JUMPI PUSH1 0x40 MLOAD PUSH32 0x717E6B7B00000000000000000000000000000000000000000000000000000000 DUP2 MSTORE PUSH1 0x4 ADD PUSH1 0x40 MLOAD DUP1 SWAP2 SUB SWAP1 REVERT JUMPDEST PUSH0 DUP1 PUSH0 SWAP1 SLOAD SWAP1 PUSH2 0x100 EXP SWAP1 DIV PUSH20 0xFFFFFFFFFFFFFFFFFFFFFFFFFFFFFFFFFFFFFFFF AND SWAP1 POP PUSH0 PUSH20 0xFFFFFFFFFFFFFFFFFFFFFFFFFFFFFFFFFFFFFFFF AND DUP2 PUSH20 0xFFFFFFFFFFFFFFFFFFFFFFFFFFFFFFFFFFFFFFFF AND SUB PUSH2 0xC09 JUMPI PUSH1 0x40 MLOAD PUSH32 0xA327F80500000000000000000000000000000000000000000000000000000000 DUP2 MSTORE PUSH1 0x4 ADD PUSH1 0x40 MLOAD DUP1 SWAP2 SUB SWAP1 REVERT JUMPDEST PUSH0 DUP2 SWAP1 POP PUSH0 DUP2 PUSH20 0xFFFFFFFFFFFFFFFFFFFFFFFFFFFFFFFFFFFFFFFF AND PUSH4 0x313CE567 PUSH1 0x40 MLOAD DUP2 PUSH4 0xFFFFFFFF AND PUSH1 0xE0 SHL DUP2 MSTORE PUSH1 0x4 ADD PUSH1 0x20 PUSH1 0x40 MLOAD DUP1 DUP4 SUB DUP2 DUP7 GAS STATICCALL ISZERO DUP1 ISZERO PUSH2 0xC57 JUMPI RETURNDATASIZE PUSH0 DUP1 RETURNDATACOPY RETURNDATASIZE PUSH0 REVERT JUMPDEST POP POP POP POP PUSH1 0x40 MLOAD RETURNDATASIZE PUSH1 0x1F NOT PUSH1 0x1F DUP3 ADD AND DUP3 ADD DUP1 PUSH1 0x40 MSTORE POP DUP2 ADD SWAP1 PUSH2 0xC7B SWAP2 SWAP1 PUSH2 0x136F JUMP JUMPDEST SWAP1 POP PUSH0 PUSH1 0x1 SLOAD DUP3 PUSH1 0xA PUSH2 0xC8E SWAP2 SWAP1 PUSH2 0x14F6 JUMP JUMPDEST CALLVALUE PUSH2 0xC99 SWAP2 SWAP1 PUSH2 0x1540 JUMP JUMPDEST PUSH2 0xCA3 SWAP2 SWAP1 PUSH2 0x15AE JUMP JUMPDEST SWAP1 POP DUP1 PUSH1 0x2 PUSH0 DUP3 DUP3 SLOAD ADD SWAP3 POP POP DUP2 SWAP1 SSTORE POP DUP3 PUSH20 0xFFFFFFFFFFFFFFFFFFFFFFFFFFFFFFFFFFFFFFFF AND PUSH4 0xA9059CBB CALLER DUP4 PUSH1 0x40 MLOAD DUP4 PUSH4 0xFFFFFFFF AND PUSH1 0xE0 SHL DUP2 MSTORE PUSH1 0x4 ADD PUSH2 0xCEF SWAP3 SWAP2 SWAP1 PUSH2 0x1132 JUMP JUMPDEST PUSH1 0x20 PUSH1 0x40 MLOAD DUP1 DUP4 SUB DUP2 PUSH0 DUP8 GAS CALL ISZERO DUP1 ISZERO PUSH2 0xD0B JUMPI RETURNDATASIZE PUSH0 DUP1 RETURNDATACOPY RETURNDATASIZE PUSH0 REVERT JUMPDEST POP POP POP POP PUSH1 0x40 MLOAD RETURNDATASIZE PUSH1 0x1F NOT PUSH1 0x1F DUP3 ADD AND DUP3 ADD DUP1 PUSH1 0x40 MSTORE POP DUP2 ADD SWAP1 PUSH2 0xD2F SWAP2 SWAP1 PUSH2 0x118E JUMP JUMPDEST PUSH2 0xD65 JUMPI PUSH1 0x40 MLOAD PUSH32 0x45C4B0200000000000000000000000000000000000000000000000000000000 DUP2 MSTORE PUSH1 0x4 ADD PUSH1 0x40 MLOAD DUP1 SWAP2 SUB SWAP1 REVERT JUMPDEST PUSH0 PUSH32 0x0 PUSH20 0xFFFFFFFFFFFFFFFFFFFFFFFFFFFFFFFFFFFFFFFF AND CALLVALUE PUSH1 0x40 MLOAD PUSH2 0xDAA SWAP1 PUSH2 0x160B JUMP JUMPDEST PUSH0 PUSH1 0x40 MLOAD DUP1 DUP4 SUB DUP2 DUP6 DUP8 GAS CALL SWAP3 POP POP POP RETURNDATASIZE DUP1 PUSH0 DUP2 EQ PUSH2 0xDE4 JUMPI PUSH1 0x40 MLOAD SWAP2 POP PUSH1 0x1F NOT PUSH1 0x3F RETURNDATASIZE ADD AND DUP3 ADD PUSH1 0x40 MSTORE RETURNDATASIZE DUP3 MSTORE RETURNDATASIZE PUSH0 PUSH1 0x20 DUP5 ADD RETURNDATACOPY PUSH2 0xDE9 JUMP JUMPDEST PUSH1 0x60 SWAP2 POP JUMPDEST POP POP SWAP1 POP DUP1 PUSH2 0xE24 JUMPI PUSH1 0x40 MLOAD PUSH32 0x6D963F8800000000000000000000000000000000000000000000000000000000 DUP2 MSTORE PUSH1 0x4 ADD PUSH1 0x40 MLOAD DUP1 SWAP2 SUB SWAP1 REVERT JUMPDEST CALLER PUSH20 0xFFFFFFFFFFFFFFFFFFFFFFFFFFFFFFFFFFFFFFFF AND PUSH32 0x8FAFEBCAF9D154343DAD25669BFA277F4FBACD7AC6B0C4FED522580E040A0F33 CALLVALUE DUP5 PUSH1 0x40 MLOAD PUSH2 0xE6C SWAP3 SWAP2 SWAP1 PUSH2 0x11B9 JUMP JUMPDEST PUSH1 0x40 MLOAD DUP1 SWAP2 SUB SWAP1 LOG2 POP POP POP POP POP JUMP JUMPDEST PUSH1 0x1 SLOAD DUP2 JUMP JUMPDEST PUSH0 DUP1 SLOAD SWAP1 PUSH2 0x100 EXP SWAP1 DIV PUSH20 0xFFFFFFFFFFFFFFFFFFFFFFFFFFFFFFFFFFFFFFFF AND DUP2 JUMP JUMPDEST PUSH0 PUSH1 0x40 MLOAD SWAP1 POP SWAP1 JUMP JUMPDEST PUSH0 DUP1 REVERT JUMPDEST PUSH0 DUP1 REVERT JUMPDEST PUSH0 PUSH20 0xFFFFFFFFFFFFFFFFFFFFFFFFFFFFFFFFFFFFFFFF DUP3 AND SWAP1 POP SWAP2 SWAP1 POP JUMP JUMPDEST PUSH0 PUSH2 0xEDE DUP3 PUSH2 0xEB5 JUMP JUMPDEST SWAP1 POP SWAP2 SWAP1 POP JUMP JUMPDEST PUSH2 0xEEE DUP2 PUSH2 0xED4 JUMP JUMPDEST DUP2 EQ PUSH2 0xEF8 JUMPI PUSH0 DUP1 REVERT JUMPDEST POP JUMP JUMPDEST PUSH0 DUP2 CALLDATALOAD SWAP1 POP PUSH2 0xF09 DUP2 PUSH2 0xEE5 JUMP JUMPDEST SWAP3 SWAP2 POP POP JUMP JUMPDEST PUSH0 PUSH1 0x20 DUP3 DUP5 SUB SLT ISZERO PUSH2 0xF24 JUMPI PUSH2 0xF23 PUSH2 0xEAD JUMP JUMPDEST JUMPDEST PUSH0 PUSH2 0xF31 DUP5 DUP3 DUP6 ADD PUSH2 0xEFB JUMP JUMPDEST SWAP2 POP POP SWAP3 SWAP2 POP POP JUMP JUMPDEST PUSH0 DUP2 SWAP1 POP SWAP2 SWAP1 POP JUMP JUMPDEST PUSH2 0xF4C DUP2 PUSH2 0xF3A JUMP JUMPDEST DUP3 MSTORE POP POP JUMP JUMPDEST PUSH0 PUSH1 0x20 DUP3 ADD SWAP1 POP PUSH2 0xF65 PUSH0 DUP4 ADD DUP5 PUSH2 0xF43 JUMP JUMPDEST SWAP3 SWAP2 POP POP JUMP JUMPDEST PUSH2 0xF74 DUP2 PUSH2 0xF3A JUMP JUMPDEST DUP2 EQ PUSH2 0xF7E JUMPI PUSH0 DUP1 REVERT JUMPDEST POP JUMP JUMPDEST PUSH0 DUP2 CALLDATALOAD SWAP1 POP PUSH2 0xF8F DUP2 PUSH2 0xF6B JUMP JUMPDEST SWAP3 SWAP2 POP POP JUMP JUMPDEST PUSH0 PUSH1 0x20 DUP3 DUP5 SUB SLT ISZERO PUSH2 0xFAA JUMPI PUSH2 0xFA9 PUSH2 0xEAD JUMP JUMPDEST JUMPDEST PUSH0 PUSH2 0xFB7 DUP5 DUP3 DUP6 ADD PUSH2 0xF81 JUMP JUMPDEST SWAP2 POP POP SWAP3 SWAP2 POP POP JUMP JUMPDEST PUSH2 0xFC9 DUP2 PUSH2 0xED4 JUMP JUMPDEST DUP3 MSTORE POP POP JUMP JUMPDEST PUSH0 DUP2 MLOAD SWAP1 POP SWAP2 SWAP1 POP JUMP JUMPDEST PUSH0 DUP3 DUP3 MSTORE PUSH1 0x20 DUP3 ADD SWAP1 POP SWAP3 SWAP2 POP POP JUMP JUMPDEST PUSH0 JUMPDEST DUP4 DUP2 LT ISZERO PUSH2 0x1006 JUMPI DUP1 DUP3 ADD MLOAD DUP2 DUP5 ADD MSTORE PUSH1 0x20 DUP2 ADD SWAP1 POP PUSH2 0xFEB JUMP JUMPDEST PUSH0 DUP5 DUP5 ADD MSTORE POP POP POP POP JUMP JUMPDEST PUSH0 PUSH1 0x1F NOT PUSH1 0x1F DUP4 ADD AND SWAP1 POP SWAP2 SWAP1 POP JUMP JUMPDEST PUSH0 PUSH2 0x102B DUP3 PUSH2 0xFCF JUMP JUMPDEST PUSH2 0x1035 DUP2 DUP6 PUSH2 0xFD9 JUMP JUMPDEST SWAP4 POP PUSH2 0x1045 DUP2 DUP6 PUSH1 0x20 DUP7 ADD PUSH2 0xFE9 JUMP JUMPDEST PUSH2 0x104E DUP2 PUSH2 0x1011 JUMP JUMPDEST DUP5 ADD SWAP2 POP POP SWAP3 SWAP2 POP POP JUMP JUMPDEST PUSH0 PUSH1 0xFF DUP3 AND SWAP1 POP SWAP2 SWAP1 POP JUMP JUMPDEST PUSH2 0x106E DUP2 PUSH2 0x1059 JUMP JUMPDEST DUP3 MSTORE POP POP JUMP JUMPDEST PUSH0 PUSH1 0xC0 DUP3 ADD SWAP1 POP PUSH2 0x1087 PUSH0 DUP4 ADD DUP10 PUSH2 0xFC0 JUMP JUMPDEST DUP2 DUP2 SUB PUSH1 0x20 DUP4 ADD MSTORE PUSH2 0x1099 DUP2 DUP9 PUSH2 0x1021 JUMP JUMPDEST SWAP1 POP PUSH2 0x10A8 PUSH1 0x40 DUP4 ADD DUP8 PUSH2 0x1065 JUMP JUMPDEST PUSH2 0x10B5 PUSH1 0x60 DUP4 ADD DUP7 PUSH2 0xF43 JUMP JUMPDEST PUSH2 0x10C2 PUSH1 0x80 DUP4 ADD DUP6 PUSH2 0xF43 JUMP JUMPDEST PUSH2 0x10CF PUSH1 0xA0 DUP4 ADD DUP5 PUSH2 0xF43 JUMP JUMPDEST SWAP8 SWAP7 POP POP POP POP POP POP POP JUMP JUMPDEST PUSH0 PUSH1 0x20 DUP3 ADD SWAP1 POP PUSH2 0x10ED PUSH0 DUP4 ADD DUP5 PUSH2 0xFC0 JUMP JUMPDEST SWAP3 SWAP2 POP POP JUMP JUMPDEST PUSH0 DUP2 MLOAD SWAP1 POP PUSH2 0x1101 DUP2 PUSH2 0xF6B JUMP JUMPDEST SWAP3 SWAP2 POP POP JUMP JUMPDEST PUSH0 PUSH1 0x20 DUP3 DUP5 SUB SLT ISZERO PUSH2 0x111C JUMPI PUSH2 0x111B PUSH2 0xEAD JUMP JUMPDEST JUMPDEST PUSH0 PUSH2 0x1129 DUP5 DUP3 DUP6 ADD PUSH2 0x10F3 JUMP JUMPDEST SWAP2 POP POP SWAP3 SWAP2 POP POP JUMP JUMPDEST PUSH0 PUSH1 0x40 DUP3 ADD SWAP1 POP PUSH2 0x1145 PUSH0 DUP4 ADD DUP6 PUSH2 0xFC0 JUMP JUMPDEST PUSH2 0x1152 PUSH1 0x20 DUP4 ADD DUP5 PUSH2 0xF43 JUMP JUMPDEST SWAP4 SWAP3 POP POP POP JUMP JUMPDEST PUSH0 DUP2 ISZERO ISZERO SWAP1 POP SWAP2 SWAP1 POP JUMP JUMPDEST PUSH2 0x116D DUP2 PUSH2 0x1159 JUMP JUMPDEST DUP2 EQ PUSH2 0x1177 JUMPI PUSH0 DUP1 REVERT JUMPDEST POP JUMP JUMPDEST PUSH0 DUP2 MLOAD SWAP1 POP PUSH2 0x1188 DUP2 PUSH2 0x1164 JUMP JUMPDEST SWAP3 SWAP2 POP POP JUMP JUMPDEST PUSH0 PUSH1 0x20 DUP3 DUP5 SUB SLT ISZERO PUSH2 0x11A3 JUMPI PUSH2 0x11A2 PUSH2 0xEAD JUMP JUMPDEST JUMPDEST PUSH0 PUSH2 0x11B0 DUP5 DUP3 DUP6 ADD PUSH2 0x117A JUMP JUMPDEST SWAP2 POP POP SWAP3 SWAP2 POP POP JUMP JUMPDEST PUSH0 PUSH1 0x40 DUP3 ADD SWAP1 POP PUSH2 0x11CC PUSH0 DUP4 ADD DUP6 PUSH2 0xF43 JUMP JUMPDEST PUSH2 0x11D9 PUSH1 0x20 DUP4 ADD DUP5 PUSH2 0xF43 JUMP JUMPDEST SWAP4 SWAP3 POP POP POP JUMP JUMPDEST PUSH0 DUP1 REVERT JUMPDEST PUSH0 DUP1 REVERT JUMPDEST PUSH32 0x4E487B7100000000000000000000000000000000000000000000000000000000 PUSH0 MSTORE PUSH1 0x41 PUSH1 0x4 MSTORE PUSH1 0x24 PUSH0 REVERT JUMPDEST PUSH2 0x121E DUP3 PUSH2 0x1011 JUMP JUMPDEST DUP2 ADD DUP2 DUP2 LT PUSH8 0xFFFFFFFFFFFFFFFF DUP3 GT OR ISZERO PUSH2 0x123D JUMPI PUSH2 0x123C PUSH2 0x11E8 JUMP JUMPDEST JUMPDEST DUP1 PUSH1 0x40 MSTORE POP POP POP JUMP JUMPDEST PUSH0 PUSH2 0x124F PUSH2 0xEA4 JUMP JUMPDEST SWAP1 POP PUSH2 0x125B DUP3 DUP3 PUSH2 0x1215 JUMP JUMPDEST SWAP2 SWAP1 POP JUMP JUMPDEST PUSH0 PUSH8 0xFFFFFFFFFFFFFFFF DUP3 GT ISZERO PUSH2 0x127A JUMPI PUSH2 0x1279 PUSH2 0x11E8 JUMP JUMPDEST JUMPDEST PUSH2 0x1283 DUP3 PUSH2 0x1011 JUMP JUMPDEST SWAP1 POP PUSH1 0x20 DUP2 ADD SWAP1 POP SWAP2 SWAP1 POP JUMP JUMPDEST PUSH0 PUSH2 0x12A2 PUSH2 0x129D DUP5 PUSH2 0x1260 JUMP JUMPDEST PUSH2 0x1246 JUMP JUMPDEST SWAP1 POP DUP3 DUP2 MSTORE PUSH1 0x20 DUP2 ADD DUP5 DUP5 DUP5 ADD GT ISZERO PUSH2 0x12BE JUMPI PUSH2 0x12BD PUSH2 0x11E4 JUMP JUMPDEST JUMPDEST PUSH2 0x12C9 DUP5 DUP3 DUP6 PUSH2 0xFE9 JUMP JUMPDEST POP SWAP4 SWAP3 POP POP POP JUMP JUMPDEST PUSH0 DUP3 PUSH1 0x1F DUP4 ADD SLT PUSH2 0x12E5 JUMPI PUSH2 0x12E4 PUSH2 0x11E0 JUMP JUMPDEST JUMPDEST DUP2 MLOAD PUSH2 0x12F5 DUP5 DUP3 PUSH1 0x20 DUP7 ADD PUSH2 0x1290 JUMP JUMPDEST SWAP2 POP POP SWAP3 SWAP2 POP POP JUMP JUMPDEST PUSH0 PUSH1 0x20 DUP3 DUP5 SUB SLT ISZERO PUSH2 0x1313 JUMPI PUSH2 0x1312 PUSH2 0xEAD JUMP JUMPDEST JUMPDEST PUSH0 DUP3 ADD MLOAD PUSH8 0xFFFFFFFFFFFFFFFF DUP2 GT ISZERO PUSH2 0x1330 JUMPI PUSH2 0x132F PUSH2 0xEB1 JUMP JUMPDEST JUMPDEST PUSH2 0x133C DUP5 DUP3 DUP6 ADD PUSH2 0x12D1 JUMP JUMPDEST SWAP2 POP POP SWAP3 SWAP2 POP POP JUMP JUMPDEST PUSH2 0x134E DUP2 PUSH2 0x1059 JUMP JUMPDEST DUP2 EQ PUSH2 0x1358 JUMPI PUSH0 DUP1 REVERT JUMPDEST POP JUMP JUMPDEST PUSH0 DUP2 MLOAD SWAP1 POP PUSH2 0x1369 DUP2 PUSH2 0x1345 JUMP JUMPDEST SWAP3 SWAP2 POP POP JUMP JUMPDEST PUSH0 PUSH1 0x20 DUP3 DUP5 SUB SLT ISZERO PUSH2 0x1384 JUMPI PUSH2 0x1383 PUSH2 0xEAD JUMP JUMPDEST JUMPDEST PUSH0 PUSH2 0x1391 DUP5 DUP3 DUP6 ADD PUSH2 0x135B JUMP JUMPDEST SWAP2 POP POP SWAP3 SWAP2 POP POP JUMP JUMPDEST PUSH32 0x4E487B7100000000000000000000000000000000000000000000000000000000 PUSH0 MSTORE PUSH1 0x11 PUSH1 0x4 MSTORE PUSH1 0x24 PUSH0 REVERT JUMPDEST PUSH0 DUP2 PUSH1 0x1 SHR SWAP1 POP SWAP2 SWAP1 POP JUMP JUMPDEST PUSH0 DUP1 DUP3 SWAP2 POP DUP4 SWAP1 POP JUMPDEST PUSH1 0x1 DUP6 GT ISZERO PUSH2 0x141C JUMPI DUP1 DUP7 DIV DUP2 GT ISZERO PUSH2 0x13F8 JUMPI PUSH2 0x13F7 PUSH2 0x139A JUMP JUMPDEST JUMPDEST PUSH1 0x1 DUP6 AND ISZERO PUSH2 0x1407 JUMPI DUP1 DUP3 MUL SWAP2 POP JUMPDEST DUP1 DUP2 MUL SWAP1 POP PUSH2 0x1415 DUP6 PUSH2 0x13C7 JUMP JUMPDEST SWAP5 POP PUSH2 0x13DC JUMP JUMPDEST SWAP5 POP SWAP5 SWAP3 POP POP POP JUMP JUMPDEST PUSH0 DUP3 PUSH2 0x1434 JUMPI PUSH1 0x1 SWAP1 POP PUSH2 0x14EF JUMP JUMPDEST DUP2 PUSH2 0x1441 JUMPI PUSH0 SWAP1 POP PUSH2 0x14EF JUMP JUMPDEST DUP2 PUSH1 0x1 DUP2 EQ PUSH2 0x1457 JUMPI PUSH1 0x2 DUP2 EQ PUSH2 0x1461 JUMPI PUSH2 0x1490 JUMP JUMPDEST PUSH1 0x1 SWAP2 POP POP PUSH2 0x14EF JUMP JUMPDEST PUSH1 0xFF DUP5 GT ISZERO PUSH2 0x1473 JUMPI PUSH2 0x1472 PUSH2 0x139A JUMP JUMPDEST JUMPDEST DUP4 PUSH1 0x2 EXP SWAP2 POP DUP5 DUP3 GT ISZERO PUSH2 0x148A JUMPI PUSH2 0x1489 PUSH2 0x139A JUMP JUMPDEST JUMPDEST POP PUSH2 0x14EF JUMP JUMPDEST POP PUSH1 0x20 DUP4 LT PUSH2 0x133 DUP4 LT AND PUSH1 0x4E DUP5 LT PUSH1 0xB DUP5 LT AND OR ISZERO PUSH2 0x14C5 JUMPI DUP3 DUP3 EXP SWAP1 POP DUP4 DUP2 GT ISZERO PUSH2 0x14C0 JUMPI PUSH2 0x14BF PUSH2 0x139A JUMP JUMPDEST JUMPDEST PUSH2 0x14EF JUMP JUMPDEST PUSH2 0x14D2 DUP5 DUP5 DUP5 PUSH1 0x1 PUSH2 0x13D3 JUMP JUMPDEST SWAP3 POP SWAP1 POP DUP2 DUP5 DIV DUP2 GT ISZERO PUSH2 0x14E9 JUMPI PUSH2 0x14E8 PUSH2 0x139A JUMP JUMPDEST JUMPDEST DUP2 DUP2 MUL SWAP1 POP JUMPDEST SWAP4 SWAP3 POP POP POP JUMP JUMPDEST PUSH0 PUSH2 0x1500 DUP3 PUSH2 0xF3A JUMP JUMPDEST SWAP2 POP PUSH2 0x150B DUP4 PUSH2 0x1059 JUMP JUMPDEST SWAP3 POP PUSH2 0x1538 PUSH32 0xFFFFFFFFFFFFFFFFFFFFFFFFFFFFFFFFFFFFFFFFFFFFFFFFFFFFFFFFFFFFFFFF DUP5 DUP5 PUSH2 0x1425 JUMP JUMPDEST SWAP1 POP SWAP3 SWAP2 POP POP JUMP JUMPDEST PUSH0 PUSH2 0x154A DUP3 PUSH2 0xF3A JUMP JUMPDEST SWAP2 POP PUSH2 0x1555 DUP4 PUSH2 0xF3A JUMP JUMPDEST SWAP3 POP DUP3 DUP3 MUL PUSH2 0x1563 DUP2 PUSH2 0xF3A JUMP JUMPDEST SWAP2 POP DUP3 DUP3 DIV DUP5 EQ DUP4 ISZERO OR PUSH2 0x157A JUMPI PUSH2 0x1579 PUSH2 0x139A JUMP JUMPDEST JUMPDEST POP SWAP3 SWAP2 POP POP JUMP JUMPDEST PUSH32 0x4E487B7100000000000000000000000000000000000000000000000000000000 PUSH0 MSTORE PUSH1 0x12 PUSH1 0x4 MSTORE PUSH1 0x24 PUSH0 REVERT JUMPDEST PUSH0 PUSH2 0x15B8 DUP3 PUSH2 0xF3A JUMP JUMPDEST SWAP2 POP PUSH2 0x15C3 DUP4 PUSH2 0xF3A JUMP JUMPDEST SWAP3 POP DUP3 PUSH2 0x15D3 JUMPI PUSH2 0x15D2 PUSH2 0x1581 JUMP JUMPDEST JUMPDEST DUP3 DUP3 DIV SWAP1 POP SWAP3 SWAP2 POP POP JUMP JUMPDEST PUSH0 DUP2 SWAP1 POP SWAP3 SWAP2 POP POP JUMP JUMPDEST POP JUMP JUMPDEST PUSH0 PUSH2 0x15F6 PUSH0 DUP4 PUSH2 0x15DE JUMP JUMPDEST SWAP2 POP PUSH2 0x1601 DUP3 PUSH2 0x15E8 JUMP JUMPDEST PUSH0 DUP3 ADD SWAP1 POP SWAP2 SWAP1 POP JUMP JUMPDEST PUSH0 PUSH2 0x1615 DUP3 PUSH2 0x15EB JUMP JUMPDEST SWAP2 POP DUP2 SWAP1 POP SWAP2 SWAP1 POP JUMP INVALID LOG2 PUSH5 0x6970667358 0x22 SLT KECCAK256 0xC4 DUP13 PUSH24 0x54CA4EC0B995BC0E9AA3844E65A3D36CB68EAFB1A279AC44 0xDF LOG3 0xAA 0x2A 0xE PUSH5 0x736F6C6343 STOP ADDMOD XOR STOP CALLER "
		},
		"gasEstimates": {
			"creation": {
				"codeDepositCost": "1143400",
				"executionCost": "infinite",
				"totalCost": "infinite"
			},
			"external": {
				"buyToken()": "infinite",
				"ethPriceForToken()": "2491",
				"getContractInfo()": "infinite",
				"owner()": "infinite",
				"rescueTokens(address)": "infinite",
				"saleToken()": "2593",
				"setSaleToken(address)": "infinite",
				"tokensSold()": "2470",
				"updateTokenPrice(uint256)": "infinite",
				"withdrawAllTokens()": "infinite"
			}
		},
		"methodIdentifiers": {
			"buyToken()": "a4821719",
			"ethPriceForToken()": "c605af53",
			"getContractInfo()": "7cc1f867",
			"owner()": "8da5cb5b",
			"rescueTokens(address)": "00ae3bf8",
			"saleToken()": "e985e367",
			"setSaleToken(address)": "a29f481c",
			"tokensSold()": "518ab2a8",
			"updateTokenPrice(uint256)": "676c0d77",
			"withdrawAllTokens()": "280da6fa"
		}
	},
	"abi": [
		{
			"inputs": [],
			"stateMutability": "nonpayable",
			"type": "constructor"
		},
		{
			"inputs": [],
			"name": "CannotRescueSaleToken",
			"type": "error"
		},
		{
			"inputs": [],
			"name": "EthTransferFailed",
			"type": "error"
		},
		{
			"inputs": [],
			"name": "InvalidAddress",
			"type": "error"
		},
		{
			"inputs": [],
			"name": "InvalidPrice",
			"type": "error"
		},
		{
			"inputs": [],
			"name": "NoEthSent",
			"type": "error"
		},
		{
			"inputs": [],
			"name": "NoTokensToRescue",
			"type": "error"
		},
		{
			"inputs": [],
			"name": "NoTokensToWithdraw",
			"type": "error"
		},
		{
			"inputs": [],
			"name": "OnlyOwner",
			"type": "error"
		},
		{
			"inputs": [],
			"name": "SaleTokenNotSet",
			"type": "error"
		},
		{
			"inputs": [],
			"name": "TokenTransferFailed",
			"type": "error"
		},
		{
			"inputs": [],
			"name": "UseTokenFunction",
			"type": "error"
		},
		{
			"anonymous": false,
			"inputs": [
				{
					"indexed": false,
					"internalType": "uint256",
					"name": "oldPrice",
					"type": "uint256"
				},
				{
					"indexed": false,
					"internalType": "uint256",
					"name": "newPrice",
					"type": "uint256"
				}
			],
			"name": "PriceUpdated",
			"type": "event"
		},
		{
			"anonymous": false,
			"inputs": [
				{
					"indexed": true,
					"internalType": "address",
					"name": "token",
					"type": "address"
				}
			],
			"name": "SaleTokenSet",
			"type": "event"
		},
		{
			"anonymous": false,
			"inputs": [
				{
					"indexed": true,
					"internalType": "address",
					"name": "buyer",
					"type": "address"
				},
				{
					"indexed": false,
					"internalType": "uint256",
					"name": "amountPaid",
					"type": "uint256"
				},
				{
					"indexed": false,
					"internalType": "uint256",
					"name": "tokensBought",
					"type": "uint256"
				}
			],
			"name": "TokensPurchased",
			"type": "event"
		},
		{
			"inputs": [],
			"name": "buyToken",
			"outputs": [],
			"stateMutability": "payable",
			"type": "function"
		},
		{
			"inputs": [],
			"name": "ethPriceForToken",
			"outputs": [
				{
					"internalType": "uint256",
					"name": "",
					"type": "uint256"
				}
			],
			"stateMutability": "view",
			"type": "function"
		},
		{
			"inputs": [],
			"name": "getContractInfo",
			"outputs": [
				{
					"internalType": "address",
					"name": "tokenAddress",
					"type": "address"
				},
				{
					"internalType": "string",
					"name": "tokenSymbol",
					"type": "string"
				},
				{
					"internalType": "uint8",
					"name": "tokenDecimals",
					"type": "uint8"
				},
				{
					"internalType": "uint256",
					"name": "tokenBalance",
					"type": "uint256"
				},
				{
					"internalType": "uint256",
					"name": "ethPrice",
					"type": "uint256"
				},
				{
					"internalType": "uint256",
					"name": "totalSold",
					"type": "uint256"
				}
			],
			"stateMutability": "view",
			"type": "function"
		},
		{
			"inputs": [],
			"name": "owner",
			"outputs": [
				{
					"internalType": "address",
					"name": "",
					"type": "address"
				}
			],
			"stateMutability": "view",
			"type": "function"
		},
		{
			"inputs": [
				{
					"internalType": "address",
					"name": "tokenAddress",
					"type": "address"
				}
			],
			"name": "rescueTokens",
			"outputs": [],
			"stateMutability": "nonpayable",
			"type": "function"
		},
		{
			"inputs": [],
			"name": "saleToken",
			"outputs": [
				{
					"internalType": "address",
					"name": "",
					"type": "address"
				}
			],
			"stateMutability": "view",
			"type": "function"
		},
		{
			"inputs": [
				{
					"internalType": "address",
					"name": "_token",
					"type": "address"
				}
			],
			"name": "setSaleToken",
			"outputs": [],
			"stateMutability": "nonpayable",
			"type": "function"
		},
		{
			"inputs": [],
			"name": "tokensSold",
			"outputs": [
				{
					"internalType": "uint256",
					"name": "",
					"type": "uint256"
				}
			],
			"stateMutability": "view",
			"type": "function"
		},
		{
			"inputs": [
				{
					"internalType": "uint256",
					"name": "newPrice",
					"type": "uint256"
				}
			],
			"name": "updateTokenPrice",
			"outputs": [],
			"stateMutability": "nonpayable",
			"type": "function"
		},
		{
			"inputs": [],
			"name": "withdrawAllTokens",
			"outputs": [],
			"stateMutability": "nonpayable",
			"type": "function"
		},
		{
			"stateMutability": "payable",
			"type": "receive"
		}
	]
}